:060000000A128A112D2FE7
:100E5A0083010A128A11312F831603138801831220
:100E6A0003130815881688110816081388138801B1
:100E7A003E2F881408127730F6000130F700842FCD
:100E8A00F201F3017308803AFF00BA307F02031DB2
:100E9A00502F98307202031C532F542F562F6A2F4B
:100EAA006A2F0130F2070318F30A0030F3077308B8
:100EBA00803AFF00BA307F02031D652F9830720214
:100ECA00031C682F692F562F6A2F003077023330A0
:100EDA00031976020318722F732F842F03108312BB
:100EEA000313081C031403187B2F7F2F8312031389
:100EFA000814822F831203130810842F842F0130C1
:100F0A00F6020030031CF703F702FF307706031DD1
:100F1A00902FFF307606031D932F942F452F8312AF
:100F2A000313081008168810E830F0000330F100A7
:100F3A00EA2F6430F6000030F700C92FF401F501FA
:100F4A007508803AFF00BA307F02031DAE2F983031
:100F5A007402031CB12FB22FB42FC92FC92F01302D
:100F6A00F4070318F50A0030F5077508803AFF0000
:100F7A00BA307F02031DC32F98307402031CC62F98
:100F8A00C72FB42FC92FC92F0130F6020030031C16
:100F9A00F703F702FF307706031DD52FFF307606D9
:100FAA00031DD82FD92FA32FDA2F0310831203136F
:100FBA00881C03140318E22FE62F831203138814E4
:100FCA00E92F831203138810EA2FFF30F007031862
:100FDA00F10AFF30F107FF307106031DF62FFF30CB
:100FEA007006031DF92FFA2F9E2F3E2F3E2F3E2FFC
:060FFA000A128A11002812
:00000001FF
